{
  "contractName": "CommunicationCreatesValueToken",
  "abi": [
    {
      "constant": true,
      "inputs": [],
      "name": "name",
      "outputs": [
        {
          "name": "",
          "type": "string"
        }
      ],
      "payable": false,
      "stateMutability": "view",
      "type": "function"
    },
    {
      "constant": true,
      "inputs": [],
      "name": "totalSupply",
      "outputs": [
        {
          "name": "",
          "type": "uint256"
        }
      ],
      "payable": false,
      "stateMutability": "view",
      "type": "function"
    },
    {
      "constant": true,
      "inputs": [],
      "name": "decimals",
      "outputs": [
        {
          "name": "",
          "type": "uint8"
        }
      ],
      "payable": false,
      "stateMutability": "view",
      "type": "function"
    },
    {
      "constant": true,
      "inputs": [],
      "name": "symbol",
      "outputs": [
        {
          "name": "",
          "type": "string"
        }
      ],
      "payable": false,
      "stateMutability": "view",
      "type": "function"
    },
    {
      "constant": true,
      "inputs": [
        {
          "name": "",
          "type": "address"
        }
      ],
      "name": "freezeOf",
      "outputs": [
        {
          "name": "",
          "type": "uint256"
        }
      ],
      "payable": false,
      "stateMutability": "view",
      "type": "function"
    },
    {
      "inputs": [
        {
          "name": "_name",
          "type": "string"
        },
        {
          "name": "_symbol",
          "type": "string"
        },
        {
          "name": "_decimals",
          "type": "uint8"
        },
        {
          "name": "_totalSupply",
          "type": "uint256"
        }
      ],
      "payable": false,
      "stateMutability": "nonpayable",
      "type": "constructor"
    },
    {
      "anonymous": false,
      "inputs": [
        {
          "indexed": true,
          "name": "from",
          "type": "address"
        },
        {
          "indexed": false,
          "name": "value",
          "type": "uint256"
        }
      ],
      "name": "Burn",
      "type": "event"
    },
    {
      "anonymous": false,
      "inputs": [
        {
          "indexed": true,
          "name": "from",
          "type": "address"
        },
        {
          "indexed": false,
          "name": "value",
          "type": "uint256"
        }
      ],
      "name": "Freeze",
      "type": "event"
    },
    {
      "anonymous": false,
      "inputs": [
        {
          "indexed": true,
          "name": "from",
          "type": "address"
        },
        {
          "indexed": false,
          "name": "value",
          "type": "uint256"
        }
      ],
      "name": "Unfreeze",
      "type": "event"
    },
    {
      "anonymous": false,
      "inputs": [
        {
          "indexed": true,
          "name": "_from",
          "type": "address"
        },
        {
          "indexed": true,
          "name": "_to",
          "type": "address"
        },
        {
          "indexed": false,
          "name": "_value",
          "type": "uint256"
        }
      ],
      "name": "Transfer",
      "type": "event"
    },
    {
      "anonymous": false,
      "inputs": [
        {
          "indexed": true,
          "name": "_owner",
          "type": "address"
        },
        {
          "indexed": true,
          "name": "_spender",
          "type": "address"
        },
        {
          "indexed": false,
          "name": "_value",
          "type": "uint256"
        }
      ],
      "name": "Approval",
      "type": "event"
    },
    {
      "constant": false,
      "inputs": [
        {
          "name": "_to",
          "type": "address"
        },
        {
          "name": "_value",
          "type": "uint256"
        }
      ],
      "name": "transfer",
      "outputs": [
        {
          "name": "success",
          "type": "bool"
        }
      ],
      "payable": false,
      "stateMutability": "nonpayable",
      "type": "function"
    },
    {
      "constant": false,
      "inputs": [
        {
          "name": "_from",
          "type": "address"
        },
        {
          "name": "_to",
          "type": "address"
        },
        {
          "name": "_value",
          "type": "uint256"
        }
      ],
      "name": "transferFrom",
      "outputs": [
        {
          "name": "success",
          "type": "bool"
        }
      ],
      "payable": false,
      "stateMutability": "nonpayable",
      "type": "function"
    },
    {
      "constant": true,
      "inputs": [
        {
          "name": "_owner",
          "type": "address"
        }
      ],
      "name": "balanceOf",
      "outputs": [
        {
          "name": "balance",
          "type": "uint256"
        }
      ],
      "payable": false,
      "stateMutability": "view",
      "type": "function"
    },
    {
      "constant": false,
      "inputs": [
        {
          "name": "_spender",
          "type": "address"
        },
        {
          "name": "_value",
          "type": "uint256"
        }
      ],
      "name": "approve",
      "outputs": [
        {
          "name": "success",
          "type": "bool"
        }
      ],
      "payable": false,
      "stateMutability": "nonpayable",
      "type": "function"
    },
    {
      "constant": false,
      "inputs": [
        {
          "name": "_value",
          "type": "uint256"
        }
      ],
      "name": "freeze",
      "outputs": [
        {
          "name": "success",
          "type": "bool"
        }
      ],
      "payable": false,
      "stateMutability": "nonpayable",
      "type": "function"
    },
    {
      "constant": false,
      "inputs": [
        {
          "name": "_value",
          "type": "uint256"
        }
      ],
      "name": "unfreeze",
      "outputs": [
        {
          "name": "success",
          "type": "bool"
        }
      ],
      "payable": false,
      "stateMutability": "nonpayable",
      "type": "function"
    },
    {
      "constant": true,
      "inputs": [
        {
          "name": "_owner",
          "type": "address"
        },
        {
          "name": "_spender",
          "type": "address"
        }
      ],
      "name": "allowance",
      "outputs": [
        {
          "name": "remaining",
          "type": "uint256"
        }
      ],
      "payable": false,
      "stateMutability": "view",
      "type": "function"
    }
  ],
  "bytecode": "0x608060405234801561001057600080fd5b506040516109ef3803806109ef833981016040908152815160208084015183850151606086015133600090815260058552959095208590559285018051909591909101939161006491600191870190610099565b508251610078906002906020860190610099565b506003805460ff191660ff9390931692909217909155600455506101349050565b828054600181600116156101000203166002900490600052602060002090601f016020900481019282601f106100da57805160ff1916838001178555610107565b82800160010185558215610107579182015b828111156101075782518255916020019190600101906100ec565b50610113929150610117565b5090565b61013191905b80821115610113576000815560010161011d565b90565b6108ac806101436000396000f3006080604052600436106100b95763ffffffff7c010000000000000000000000000000000000000000000000000000000060003504166306fdde0381146100be578063095ea7b31461014857806318160ddd1461018057806323b872dd146101a7578063313ce567146101d15780636623fc46146101fc57806370a082311461021457806395d89b4114610235578063a9059cbb1461024a578063cd4217c11461026e578063d7a78db81461028f578063dd62ed3e146102a7575b600080fd5b3480156100ca57600080fd5b506100d36102ce565b6040805160208082528351818301528351919283929083019185019080838360005b8381101561010d5781810151838201526020016100f5565b50505050905090810190601f16801561013a5780820380516001836020036101000a031916815260200191505b509250505060405180910390f35b34801561015457600080fd5b5061016c600160a060020a036004351660243561035b565b604080519115158252519081900360200190f35b34801561018c57600080fd5b506101956103c1565b60408051918252519081900360200190f35b3480156101b357600080fd5b5061016c600160a060020a03600435811690602435166044356103c7565b3480156101dd57600080fd5b506101e6610535565b6040805160ff9092168252519081900360200190f35b34801561020857600080fd5b5061016c60043561053e565b34801561022057600080fd5b50610195600160a060020a0360043516610604565b34801561024157600080fd5b506100d361061f565b34801561025657600080fd5b5061016c600160a060020a0360043516602435610677565b34801561027a57600080fd5b50610195600160a060020a0360043516610758565b34801561029b57600080fd5b5061016c60043561076a565b3480156102b357600080fd5b50610195600160a060020a0360043581169060243516610830565b60018054604080516020600284861615610100026000190190941693909304601f810184900484028201840190925281815292918301828280156103535780601f1061032857610100808354040283529160200191610353565b820191906000526020600020905b81548152906001019060200180831161033657829003601f168201915b505050505081565b336000818152600760209081526040808320600160a060020a038716808552908352818420869055815186815291519394909390927f8c5be1e5ebec7d5bd14f71427d1e84f3dd0314c0f7b2291e5b200ac8c7c3b925928290030190a350600192915050565b60045481565b600160a060020a0380841660009081526007602090815260408083203384529091528120549091841615156103fb57600080fd5b600160a060020a03851660009081526005602052604090205483118015906104235750828110155b151561042e57600080fd5b600160a060020a038416600090815260056020526040902054610457908463ffffffff61085b16565b600160a060020a03808616600090815260056020526040808220939093559087168152205461048c908463ffffffff61086e16565b600160a060020a03861660009081526005602090815260408083209390935560078152828220338352905220546104c9908463ffffffff61086e16565b600160a060020a03808716600081815260076020908152604080832033845282529182902094909455805187815290519288169391927fddf252ad1be2c89b69c2b068fc378daa952ba7f163c4a11628f55a4df523b3ef929181900390910190a3506001949350505050565b60035460ff1681565b3360009081526006602052604081205482111561055a57600080fd5b6000821161056757600080fd5b33600090815260066020526040902054610587908363ffffffff61086e16565b336000908152600660209081526040808320939093556005905220546105b3908363ffffffff61085b16565b33600081815260056020908152604091829020939093558051858152905191927f2cfce4af01bcb9d6cf6c84ee1b7c491100b8695368264146a94d71e10a63083f92918290030190a2506001919050565b600160a060020a031660009081526005602052604090205490565b6002805460408051602060018416156101000260001901909316849004601f810184900484028201840190925281815292918301828280156103535780601f1061032857610100808354040283529160200191610353565b3360009081526005602052604081205482111561069357600080fd5b600160a060020a03831615156106a857600080fd5b336000908152600560205260409020546106c8908363ffffffff61086e16565b3360009081526005602052604080822092909255600160a060020a038516815220546106fa908363ffffffff61085b16565b600160a060020a0384166000818152600560209081526040918290209390935580518581529051919233927fddf252ad1be2c89b69c2b068fc378daa952ba7f163c4a11628f55a4df523b3ef9281900390910190a350600192915050565b60066020526000908152604090205481565b3360009081526005602052604081205482111561078657600080fd5b6000821161079357600080fd5b336000908152600560205260409020546107b3908363ffffffff61086e16565b336000908152600560209081526040808320939093556006905220546107df908363ffffffff61085b16565b33600081815260066020908152604091829020939093558051858152905191927ff97a274face0b5517365ad396b1fdba6f68bd3135ef603e44272adba3af5a1e092918290030190a2506001919050565b600160a060020a03918216600090815260076020908152604080832093909416825291909152205490565b8181018281101561086857fe5b92915050565b60008282111561087a57fe5b509003905600a165627a7a723058206c534dadad74cdf875fdfb5ff72acef983b2cd930afa2d120b640fbda03440220029",
  "source": "pragma solidity ^0.4.23;\n\n/**\n * Math operations with safety checks\n */\nimport \"./EIP20Interface.sol\";\nlibrary SafeMath {\n    function mul(uint256 a, uint256 b) internal pure returns (uint256 c) {\n      // Gas optimization: this is cheaper than asserting 'a' not being zero, but the\n      // benefit is lost if 'b' is also tested.\n      // See: https://github.com/OpenZeppelin/openzeppelin-solidity/pull/522\n        if (a == 0) {\n            return 0;\n        }\n\n        c = a * b;\n        assert(c / a == b);\n        return c;\n    }   \n\n    /**\n    * @dev Integer division of two numbers, truncating the quotient.\n    */\n    function div(uint256 a, uint256 b) internal pure returns (uint256) {\n      // assert(b > 0); // Solidity automatically throws when dividing by 0\n      // uint256 c = a / b;\n      // assert(a == b * c + a % b); // There is no case in which this doesn't hold\n        return a / b;\n    }\n\n    /**\n    * @dev Subtracts two numbers, throws on overflow (i.e. if subtrahend is greater than minuend).\n    */\n    function sub(uint256 a, uint256 b) internal pure returns (uint256) {\n        assert(b <= a);\n        return a - b;\n    }\n\n    /**\n    * @dev Adds two numbers, throws on overflow.\n    */\n    function add(uint256 a, uint256 b) internal pure returns (uint256 c) {\n        c = a + b;\n        assert(c >= a);\n        return c;\n    }\n}\ncontract CommunicationCreatesValueToken is EIP20Interface {\n    using SafeMath for uint256;\n    string public name;\n    string public symbol;\n    uint8 public decimals;\n    uint256 public totalSupply;\n    \n    \n    mapping(address => uint256) public balanceOf;\n    mapping(address => uint256) public freezeOf;\n    mapping(address => mapping(address=> uint256)) allowed;\n\n    /* This notifies clients about the amount burnt */\n    event Burn(address indexed from, uint256 value);\n\t\n\t/* This notifies clients about the amount frozen */\n    event Freeze(address indexed from, uint256 value);\n\t\n\t/* This notifies clients about the amount unfrozen */\n    event Unfreeze(address indexed from, uint256 value);\n\n    constructor (\n        string _name,\n        string _symbol,\n        uint8 _decimals,\n        uint256 _totalSupply\n    ) public {\n        balanceOf[msg.sender] = _totalSupply;\n        name = _name;\n        symbol = _symbol;\n        decimals = _decimals;\n        totalSupply = _totalSupply;\n    }   \n    \n    function transfer(address _to, uint256 _value) public returns (bool success) {\n        require(balanceOf[msg.sender] >= _value);\n        require(_to != address(0));\n        balanceOf[msg.sender] = balanceOf[msg.sender].sub(_value);\n        balanceOf[_to] = balanceOf[_to].add(_value);\n        emit Transfer(msg.sender, _to, _value); \n        return true;\n    }\n\n    function transferFrom(address _from, address _to, uint256 _value) public returns (bool success) {\n        uint256 allowance = allowed[_from][msg.sender];\n        require(_to != address(0));\n        require(balanceOf[_from] >= _value && allowance >= _value);\n        balanceOf[_to] = balanceOf[_to].add(_value);\n        balanceOf[_from] = balanceOf[_from].sub(_value);\n        allowed[_from][msg.sender] = allowed[_from][msg.sender].sub(_value);\n        emit Transfer(_from, _to, _value); \n        return true;\n    }\n\n    function balanceOf(address _owner) public view returns (uint256 balance) {\n        return balanceOf[_owner];\n    }\n\n    function approve(address _spender, uint256 _value) public returns (bool success) {\n        allowed[msg.sender][_spender] = _value;\n        emit Approval(msg.sender, _spender, _value); //solhint-disable-line indent, no-unused-vars\n        return true;\n    }\n\n    function freeze(uint256 _value) public returns (bool success) {\n        require(balanceOf[msg.sender] >= _value);           // Check if the sender has enough\n        require(_value>0);\n        balanceOf[msg.sender] = balanceOf[msg.sender].sub(_value);                      // Subtract from the sender\n        freezeOf[msg.sender] = freezeOf[msg.sender].add(_value);                                // Updates totalSupply\n        emit Freeze(msg.sender, _value);\n        return true;\n    }\n\n    function unfreeze(uint256 _value) public returns (bool success) {\n        require(freezeOf[msg.sender] >= _value);            // Check if the sender has enough\n\t    require(_value>0);\n        freezeOf[msg.sender] = freezeOf[msg.sender].sub(_value);                      // Subtract from the sender\n\t\tbalanceOf[msg.sender] = balanceOf[msg.sender].add(_value);\n        emit Unfreeze(msg.sender, _value);\n        return true;\n    }\n\n\n    function allowance(address _owner, address _spender) public view returns (uint256 remaining) {\n        return allowed[_owner][_spender];\n    }   \n}",
  "sourcePath": "/Users/pool/Documents/projects/ccvt/ccvt/contracts/CommunicationCreatesValueToken.sol",
  "compiler": {
    "name": "solc",
    "version": "0.4.24+commit.e67f0147.Emscripten.clang"
  },
  "schemaVersion": "2.0.1",
  "updatedAt": "2018-10-24T08:38:39.001Z"
}