{
  "contractName": "CommunicationCreatesValueTokenLock",
  "abi": [
    {
      "constant": true,
      "inputs": [],
      "name": "beneficiary",
      "outputs": [
        {
          "name": "",
          "type": "address"
        }
      ],
      "payable": false,
      "stateMutability": "view",
      "type": "function"
    },
    {
      "constant": true,
      "inputs": [
        {
          "name": "",
          "type": "uint256"
        }
      ],
      "name": "unfreezed",
      "outputs": [
        {
          "name": "",
          "type": "uint256"
        }
      ],
      "payable": false,
      "stateMutability": "view",
      "type": "function"
    },
    {
      "constant": true,
      "inputs": [],
      "name": "totalFreeze",
      "outputs": [
        {
          "name": "",
          "type": "uint256"
        }
      ],
      "payable": false,
      "stateMutability": "view",
      "type": "function"
    },
    {
      "constant": true,
      "inputs": [],
      "name": "openingTime",
      "outputs": [
        {
          "name": "",
          "type": "uint256"
        }
      ],
      "payable": false,
      "stateMutability": "view",
      "type": "function"
    },
    {
      "constant": true,
      "inputs": [],
      "name": "token",
      "outputs": [
        {
          "name": "",
          "type": "address"
        }
      ],
      "payable": false,
      "stateMutability": "view",
      "type": "function"
    },
    {
      "inputs": [
        {
          "name": "_token",
          "type": "address"
        },
        {
          "name": "_beneficiary",
          "type": "address"
        },
        {
          "name": "_openingTime",
          "type": "uint256"
        },
        {
          "name": "_totalFreeze",
          "type": "uint256"
        }
      ],
      "payable": false,
      "stateMutability": "nonpayable",
      "type": "constructor"
    },
    {
      "constant": false,
      "inputs": [],
      "name": "release",
      "outputs": [],
      "payable": false,
      "stateMutability": "nonpayable",
      "type": "function"
    },
    {
      "constant": true,
      "inputs": [],
      "name": "getStage",
      "outputs": [
        {
          "name": "",
          "type": "uint256"
        }
      ],
      "payable": false,
      "stateMutability": "view",
      "type": "function"
    }
  ],
  "bytecode": "0x608060405234801561001057600080fd5b506040516080806104a8833981016040908152815160208301519183015160609093015190929042821161004357600080fd5b60008054600160a060020a03958616600160a060020a031991821617909155600180549490951693169290921790925560029190915560035561041d8061008b6000396000f3006080604052600436106100825763ffffffff7c010000000000000000000000000000000000000000000000000000000060003504166338af3eed8114610087578063443315da146100c557806386d1a69f146100ef57806396b0e38b14610106578063b7a8807c1461011b578063fc0c546a14610130578063fcaa766414610145575b600080fd5b34801561009357600080fd5b5061009c61015a565b6040805173ffffffffffffffffffffffffffffffffffffffff9092168252519081900360200190f35b3480156100d157600080fd5b506100dd600435610176565b60408051918252519081900360200190f35b3480156100fb57600080fd5b50610104610188565b005b34801561011257600080fd5b506100dd610374565b34801561012757600080fd5b506100dd61037a565b34801561013c57600080fd5b5061009c610380565b34801561015157600080fd5b506100dd61039c565b60015473ffffffffffffffffffffffffffffffffffffffff1681565b60046020526000908152604090205481565b600254610e10429182039081046000818152600460205260408120546001141561023957604080517f08c379a000000000000000000000000000000000000000000000000000000000815260206004820152602c60248201527f54686973207765656b207765206861766520756e667265657a6520706172742060448201527f6f662074686520746f6b656e0000000000000000000000000000000000000000606482015290519081900360840190fd5b6102416103ac565b9050600081116102b257604080517f08c379a000000000000000000000000000000000000000000000000000000000815260206004820152601f60248201527f74686520746f6b656e206861732066696e69736865642072656c656173656400604482015290519081900360640190fd5b60008281526004602081815260408084206001908190558454905482517fa9059cbb00000000000000000000000000000000000000000000000000000000815273ffffffffffffffffffffffffffffffffffffffff9182169581019590955260248501879052915191169363a9059cbb936044808201949392918390030190829087803b15801561034257600080fd5b505af1158015610356573d6000803e3d6000fd5b505050506040513d602081101561036c57600080fd5b505050505050565b60035481565b60025481565b60005473ffffffffffffffffffffffffffffffffffffffff1681565b6002546201518042919091030490565b60008060008060006103bc61039c565b9350600092505b8383116103de576003546002906001909401930491506103c3565b62015180610e10830204959450505050505600a165627a7a72305820db09e4719712c2510424e37fe07702ef4d013062391ced8336333595f08aeb390029",
  "source": "pragma solidity ^0.4.23;\n\nimport './CommunicationCreatesValueToken.sol';\n\n/**\n * @title TokenTimelock\n * @dev TokenTimelock is a token holder contract that will allow a\n * beneficiary to extract the tokens after a given release time\n */\ncontract CommunicationCreatesValueTokenLock {\n  // ERC20 basic token contract being held\n    CommunicationCreatesValueToken public token;\n\n  // beneficiary of tokens after they are released\n    address public beneficiary;\n\n  // timestamp when token release is enabled\n    uint256 public openingTime;\n    \n    uint256 public totalFreeze;\n\n    mapping(uint => uint) public unfreezed;\n\n    constructor(\n        CommunicationCreatesValueToken _token,\n        address _beneficiary,\n        uint256 _openingTime,\n        uint256 _totalFreeze\n    )\n        public\n    {\n        require(_openingTime > block.timestamp);\n        token = _token;\n        beneficiary = _beneficiary;\n        openingTime = _openingTime;\n        totalFreeze = _totalFreeze;\n    }\n\n  /**\n   * @notice Transfers tokens held by timelock to beneficiary.\n   */\n    function release() public {\n        uint256 nowTime = block.timestamp;\n        uint256 passTime = nowTime - openingTime;\n        uint256 weeksnow = passTime/3600;\n        require(unfreezed[weeksnow] != 1, \"This week we have unfreeze part of the token\");\n        uint256 amount = getPartReleaseAmount();\n        require(amount > 0, \"the token has finished released\");\n        unfreezed[weeksnow] = 1;\n        token.transfer(beneficiary, amount);\n    }\n\n    /**\n    *@dev getMonthRelease is the function to get todays month realse\n    *\n    */\n    function getPartReleaseAmount() internal view returns(uint256){\n        uint stage = getStage();\n        for( uint i = 0; i <= stage; i++ ) {\n            uint256 stageAmount = totalFreeze/2;\n        }\n        uint256 amount = stageAmount*3600/86400;\n        return amount;\n    }\n    \n    /**\n    *@dev getStage is the function to get which stage the lock is on, four year will change the stage\n    *@return uint256\n    */\n    function getStage() public view returns(uint256) {\n        uint256 nowTime = block.timestamp;\n        uint256 passTime = nowTime - openingTime;\n        uint256 stage = passTime/86400;       //stage is the lock is on, a day is 86400 seconds\n        return stage;\n    }\n}\n\n",
  "sourcePath": "/Users/pool/Documents/projects/ccvt/ccvt/contracts/CommunicationCreatesValueTokenLock.sol",
  "compiler": {
    "name": "solc",
    "version": "0.4.24+commit.e67f0147.Emscripten.clang"
  },
  "schemaVersion": "2.0.1",
  "updatedAt": "2018-10-24T08:38:38.995Z"
}